{
  "contractName": "ProductChain",
  "abi": [
    {
      "inputs": [],
      "payable": false,
      "stateMutability": "nonpayable",
      "type": "constructor"
    },
    {
      "constant": false,
      "inputs": [
        {
          "name": "c_name",
          "type": "string"
        },
        {
          "name": "c_origin",
          "type": "string"
        },
        {
          "name": "pr_name",
          "type": "string"
        },
        {
          "name": "pr_descr",
          "type": "string"
        },
        {
          "name": "pr_id",
          "type": "int32"
        }
      ],
      "name": "createProduct",
      "outputs": [],
      "payable": false,
      "stateMutability": "nonpayable",
      "type": "function"
    }
  ],
  "bytecode": "0x608060405234801561001057600080fd5b50610479806100206000396000f3fe608060405260043610610041576000357c0100000000000000000000000000000000000000000000000000000000900463ffffffff168063c895f5a514610046575b600080fd5b34801561005257600080fd5b506102de600480360360a081101561006957600080fd5b810190808035906020019064010000000081111561008657600080fd5b82018360208201111561009857600080fd5b803590602001918460018302840111640100000000831117156100ba57600080fd5b91908080601f016020809104026020016040519081016040528093929190818152602001838380828437600081840152601f19601f8201169050808301925050505050505091929192908035906020019064010000000081111561011d57600080fd5b82018360208201111561012f57600080fd5b8035906020019184600183028401116401000000008311171561015157600080fd5b91908080601f016020809104026020016040519081016040528093929190818152602001838380828437600081840152601f19601f820116905080830192505050505050509192919290803590602001906401000000008111156101b457600080fd5b8201836020820111156101c657600080fd5b803590602001918460018302840111640100000000831117156101e857600080fd5b91908080601f016020809104026020016040519081016040528093929190818152602001838380828437600081840152601f19601f8201169050808301925050505050505091929192908035906020019064010000000081111561024b57600080fd5b82018360208201111561025d57600080fd5b8035906020019184600183028401116401000000008311171561027f57600080fd5b91908080601f016020809104026020016040519081016040528093929190818152602001838380828437600081840152601f19601f820116905080830192505050505050509192919290803560030b90602001909291905050506102e0565b005b6102e8610383565b6102f06103bb565b6102f86103e9565b87836000018190525086836020018190525033836040019073ffffffffffffffffffffffffffffffffffffffff16908173ffffffffffffffffffffffffffffffffffffffff16815250508282602001819052504282604001818152505085816000018190525084816020018190525083816040019060030b908160030b815250505050505050505050565b6060604051908101604052806060815260200160608152602001600073ffffffffffffffffffffffffffffffffffffffff1681525090565b60e0604051908101604052806103cf610415565b81526020016103dc610415565b8152602001600081525090565b6080604051908101604052806060815260200160608152602001600060030b8152602001606081525090565b6060604051908101604052806060815260200160608152602001600073ffffffffffffffffffffffffffffffffffffffff168152509056fea165627a7a72305820b78e0f81f1759541e174069e149afd158ca09da7c8e3753cfa31f86932f37e500029",
  "source": "pragma solidity ^0.5.0;\n\ncontract ProductChain {\n    \n    struct Company {\n        string name;\n        string origin;\n        address p_key;\n    }\n    \n    struct Transaction {\n        Company seller;\n        Company buyer;\n        uint datastamp;\n    }\n    \n    struct Product {\n        string name;\n        string description;\n        int32 id;\n        Transaction[] transactions;\n    }\n    \n    mapping (int32 => Product) products;\n    \n    constructor() public {\n      \n    }\n    \n    function createProduct(string memory c_name, string memory c_origin, string memory pr_name, string memory pr_descr, int32 pr_id) public {\n        \n        Company memory cmp;\n        Transaction memory tr;\n        Product memory pr;\n        \n        cmp.name = c_name;\n        cmp.origin = c_origin;\n        cmp.p_key = msg.sender;\n        \n        tr.buyer = cmp;\n        tr.datastamp = now;\n        \n        pr.name = pr_name;\n        pr.description = pr_descr;\n        pr.id = pr_id;\n    }\n  \n  \n}\n",
  "sourcePath": "/home/sami/Babba4e/Contract/contracts/ProductChain.sol",
  "compiler": {
    "name": "solc",
    "version": "0.5.0+commit.1d4f565a.Emscripten.clang"
  },
  "schemaVersion": "3.0.3",
  "updatedAt": "2019-03-15T10:09:04.702Z",
  "devdoc": {
    "methods": {}
  },
  "userdoc": {
    "methods": {}
  }
}