{
  "contractName": "ProductChain",
  "abi": [
    {
      "inputs": [],
      "payable": false,
      "stateMutability": "nonpayable",
      "type": "constructor"
    },
    {
      "constant": false,
      "inputs": [
        {
          "name": "c_name",
          "type": "string"
        },
        {
          "name": "c_origin",
          "type": "string"
        },
        {
          "name": "pr_name",
          "type": "string"
        },
        {
          "name": "pr_descr",
          "type": "string"
        },
        {
          "name": "pr_id",
          "type": "uint32"
        }
      ],
      "name": "addProduct",
      "outputs": [],
      "payable": false,
      "stateMutability": "nonpayable",
      "type": "function"
    }
  ],
  "bytecode": "0x608060405234801561001057600080fd5b50610746806100206000396000f3fe608060405260043610610041576000357c0100000000000000000000000000000000000000000000000000000000900463ffffffff1680636d6931d714610046575b600080fd5b34801561005257600080fd5b506102e1600480360360a081101561006957600080fd5b810190808035906020019064010000000081111561008657600080fd5b82018360208201111561009857600080fd5b803590602001918460018302840111640100000000831117156100ba57600080fd5b91908080601f016020809104026020016040519081016040528093929190818152602001838380828437600081840152601f19601f8201169050808301925050505050505091929192908035906020019064010000000081111561011d57600080fd5b82018360208201111561012f57600080fd5b8035906020019184600183028401116401000000008311171561015157600080fd5b91908080601f016020809104026020016040519081016040528093929190818152602001838380828437600081840152601f19601f820116905080830192505050505050509192919290803590602001906401000000008111156101b457600080fd5b8201836020820111156101c657600080fd5b803590602001918460018302840111640100000000831117156101e857600080fd5b91908080601f016020809104026020016040519081016040528093929190818152602001838380828437600081840152601f19601f8201169050808301925050505050505091929192908035906020019064010000000081111561024b57600080fd5b82018360208201111561025d57600080fd5b8035906020019184600183028401116401000000008311171561027f57600080fd5b91908080601f016020809104026020016040519081016040528093929190818152602001838380828437600081840152601f19601f820116905080830192505050505050509192919290803563ffffffff1690602001909291905050506102e3565b005b6102eb6105a4565b6102f36105dc565b6102fb610615565b87836000018190525086836020018190525033836040019073ffffffffffffffffffffffffffffffffffffffff16908173ffffffffffffffffffffffffffffffffffffffff168152505085816000018190525084816020018190525083816040019063ffffffff16908163ffffffff1681525050828260200181905250428260400181815250506000826060019060ff16908160ff1681525050806000808663ffffffff1663ffffffff16815260200190815260200160002060008201518160000190805190602001906103d092919061063d565b5060208201518160010190805190602001906103ed92919061063d565b5060408201518160020160006101000a81548163ffffffff021916908363ffffffff16021790555090505081600160008663ffffffff1663ffffffff168152602001908152602001600020600081548110151561044657fe5b9060005260206000209060080201600082015181600001600082015181600001908051906020019061047992919061063d565b50602082015181600101908051906020019061049692919061063d565b5060408201518160020160006101000a81548173ffffffffffffffffffffffffffffffffffffffff021916908373ffffffffffffffffffffffffffffffffffffffff1602179055505050602082015181600301600082015181600001908051906020019061050592919061063d565b50602082015181600101908051906020019061052292919061063d565b5060408201518160020160006101000a81548173ffffffffffffffffffffffffffffffffffffffff021916908373ffffffffffffffffffffffffffffffffffffffff16021790555050506040820151816006015560608201518160070160006101000a81548160ff021916908360ff1602179055509050505050505050505050565b6060604051908101604052806060815260200160608152602001600073ffffffffffffffffffffffffffffffffffffffff1681525090565b610100604051908101604052806105f16106bd565b81526020016105fe6106bd565b815260200160008152602001600060ff1681525090565b6060604051908101604052806060815260200160608152602001600063ffffffff1681525090565b828054600181600116156101000203166002900490600052602060002090601f016020900481019282601f1061067e57805160ff19168380011785556106ac565b828001600101855582156106ac579182015b828111156106ab578251825591602001919060010190610690565b5b5090506106b991906106f5565b5090565b6060604051908101604052806060815260200160608152602001600073ffffffffffffffffffffffffffffffffffffffff1681525090565b61071791905b808211156107135760008160009055506001016106fb565b5090565b9056fea165627a7a723058206432003a75bf8d77ea6b1a6ea025e3eced059ac249f40d1e0be8ceded2d159120029",
  "source": "pragma solidity ^0.5.0;\n\ncontract ProductChain {\n\n    struct Company {\n        string name;\n        string origin;\n        address p_key;\n    }\n\n    struct Transaction {\n        Company seller;\n        Company buyer;\n        uint datastamp;\n        uint8 id;\n    }\n\n    struct Product {\n        string name;\n        string description;\n        uint32 id;\n    }\n\n    mapping (uint32 => Product) products;\n    mapping (uint32 => Transaction[]) transactions;\n\n    constructor() public {\n\n    }\n\n    function addProduct(string memory c_name, string memory c_origin, string memory pr_name, string memory pr_descr, uint32 pr_id) public {\n\n        Company memory cmp;\n        Transaction memory tr;\n        Product memory pr;\n\n        cmp.name = c_name;\n        cmp.origin = c_origin;\n        cmp.p_key = msg.sender;\n\n        pr.name = pr_name;\n        pr.description = pr_descr;\n        pr.id = pr_id;\n\n        tr.buyer = cmp;\n        tr.datastamp = now;\n        tr.id = 0;\n\n        products[pr_id] = pr;\n        transactions[pr_id][0] = tr;\n    }\n\n//     function buyProduct(uint32 pr_id, uint8 tr_id) public {\n//\n//         Product storage pr = products[pr_id];\n//         Company storage seller = pr.transactions[pr.transactions.length - 1].buyer;\n//         require(msg.sender == seller.p_key);\n//\n//         Transaction memory tr;\n//         tr.seller = seller;\n//         tr.id = tr_id;\n//\n//         pr.transactions[pr.transactions.length] = tr;\n//     }\n}\n",
  "sourcePath": "/home/sami/Babba4e/Contract/contracts/ProductChain.sol",
  "compiler": {
    "name": "solc",
    "version": "0.5.0+commit.1d4f565a.Emscripten.clang"
  },
  "schemaVersion": "3.0.3",
  "updatedAt": "2019-03-15T11:35:14.243Z",
  "devdoc": {
    "methods": {}
  },
  "userdoc": {
    "methods": {}
  }
}