{
  "contractName": "ProductChain",
  "abi": [
    {
      "inputs": [],
      "payable": false,
      "stateMutability": "nonpayable",
      "type": "constructor"
    },
    {
      "constant": false,
      "inputs": [
        {
          "name": "c_name",
          "type": "bytes32"
        },
        {
          "name": "c_origin",
          "type": "bytes32"
        },
        {
          "name": "pr_name",
          "type": "bytes32"
        },
        {
          "name": "pr_descr",
          "type": "bytes32"
        },
        {
          "name": "pr_id",
          "type": "uint32"
        }
      ],
      "name": "addProduct",
      "outputs": [],
      "payable": false,
      "stateMutability": "nonpayable",
      "type": "function"
    },
    {
      "constant": false,
      "inputs": [
        {
          "name": "pr_id",
          "type": "uint32"
        },
        {
          "name": "tr_id",
          "type": "uint32"
        }
      ],
      "name": "sellProduct",
      "outputs": [],
      "payable": false,
      "stateMutability": "nonpayable",
      "type": "function"
    },
    {
      "constant": false,
      "inputs": [
        {
          "name": "pr_id",
          "type": "uint32"
        },
        {
          "name": "tr_id",
          "type": "uint32"
        },
        {
          "name": "s_name",
          "type": "bytes32"
        },
        {
          "name": "s_origin",
          "type": "bytes32"
        }
      ],
      "name": "buyProduct",
      "outputs": [],
      "payable": false,
      "stateMutability": "nonpayable",
      "type": "function"
    },
    {
      "constant": true,
      "inputs": [
        {
          "name": "pr_id",
          "type": "uint32"
        }
      ],
      "name": "getInformation",
      "outputs": [
        {
          "name": "pr_name",
          "type": "bytes32"
        },
        {
          "name": "pr_descr",
          "type": "bytes32"
        },
        {
          "name": "producer",
          "type": "bytes32"
        },
        {
          "name": "origin",
          "type": "bytes32"
        },
        {
          "name": "p_key",
          "type": "address"
        },
        {
          "name": "sell_names",
          "type": "bytes32[10]"
        },
        {
          "name": "buy_names",
          "type": "bytes32[10]"
        },
        {
          "name": "sell_addr",
          "type": "address[10]"
        },
        {
          "name": "buy_addr",
          "type": "address[10]"
        },
        {
          "name": "isSold",
          "type": "bool"
        }
      ],
      "payable": false,
      "stateMutability": "view",
      "type": "function"
    },
    {
      "constant": false,
      "inputs": [
        {
          "name": "pr_id",
          "type": "uint32"
        }
      ],
      "name": "makeSale",
      "outputs": [],
      "payable": false,
      "stateMutability": "nonpayable",
      "type": "function"
    }
  ],
  "bytecode": "0x608060405234801561001057600080fd5b50610fe0806100206000396000f3fe60806040526004361061006d576000357c0100000000000000000000000000000000000000000000000000000000900463ffffffff1680631804aff91461007257806348352bef146101d65780636a66707c1461023f578063a32b6eac14610280578063a8c0551f146102e5575b600080fd5b34801561007e57600080fd5b506100b16004803603602081101561009557600080fd5b81019080803563ffffffff169060200190929190505050610336565b604051808b81526020018a81526020018981526020018881526020018773ffffffffffffffffffffffffffffffffffffffff1673ffffffffffffffffffffffffffffffffffffffff16815260200186600a60200280838360005b8381101561012657808201518184015260208101905061010b565b5050505090500185600a60200280838360005b83811015610154578082015181840152602081019050610139565b5050505090500184600a60200280838360005b83811015610182578082015181840152602081019050610167565b5050505090500183600a60200280838360005b838110156101b0578082015181840152602081019050610195565b50505050905001821515151581526020019a505050505050505050505060405180910390f35b3480156101e257600080fd5b5061023d600480360360a08110156101f957600080fd5b8101908080359060200190929190803590602001909291908035906020019092919080359060200190929190803563ffffffff169060200190929190505050610689565b005b34801561024b57600080fd5b5061027e6004803603602081101561026257600080fd5b81019080803563ffffffff1690602001909291905050506108c8565b005b34801561028c57600080fd5b506102e3600480360360808110156102a357600080fd5b81019080803563ffffffff169060200190929190803563ffffffff16906020019092919080359060200190929190803590602001909291905050506109cf565b005b3480156102f157600080fd5b506103346004803603604081101561030857600080fd5b81019080803563ffffffff169060200190929190803563ffffffff169060200190929190505050610b78565b005b6000806000806000610346610eb4565b61034e610eb4565b610356610ed8565b61035e610ed8565b6000806000808d63ffffffff1663ffffffff168152602001908152602001600020905080600001549a5080600101549950600160008d63ffffffff1663ffffffff1681526020019081526020016000206000600a811015156103bc57fe5b60080201600301600001549850600160008d63ffffffff1663ffffffff1681526020019081526020016000206000600a811015156103f657fe5b60080201600301600101549750600160008d63ffffffff1663ffffffff1681526020019081526020016000206000600a8110151561043057fe5b6008020160030160020160009054906101000a900473ffffffffffffffffffffffffffffffffffffffff16965060008090505b8160020160049054906101000a900463ffffffff1663ffffffff1681101561066657600160008e63ffffffff1663ffffffff16815260200190815260200160002081600a811015156104b157fe5b60080201600001600001548782600a811015156104ca57fe5b602002018181525050600160008e63ffffffff1663ffffffff16815260200190815260200160002081600a811015156104ff57fe5b6008020160000160020160009054906101000a900473ffffffffffffffffffffffffffffffffffffffff168582600a8110151561053857fe5b602002019073ffffffffffffffffffffffffffffffffffffffff16908173ffffffffffffffffffffffffffffffffffffffff1681525050600160008e63ffffffff1663ffffffff16815260200190815260200160002081600a8110151561059b57fe5b60080201600301600001548682600a811015156105b457fe5b602002018181525050600160008e63ffffffff1663ffffffff16815260200190815260200160002081600a811015156105e957fe5b6008020160030160020160009054906101000a900473ffffffffffffffffffffffffffffffffffffffff168482600a8110151561062257fe5b602002019073ffffffffffffffffffffffffffffffffffffffff16908173ffffffffffffffffffffffffffffffffffffffff16815250508080600101915050610463565b508060020160089054906101000a900460ff169150509193959799509193959799565b610691610efc565b610699610f3a565b60008060008563ffffffff1663ffffffff1681526020019081526020016000209050878360000181815250508683602001818152505033836040019073ffffffffffffffffffffffffffffffffffffffff16908173ffffffffffffffffffffffffffffffffffffffff1681525050858160000181905550848160010181905550838160020160006101000a81548163ffffffff021916908363ffffffff16021790555060018160020160046101000a81548163ffffffff021916908363ffffffff160217905550828260200181905250428260400181815250506000826060019063ffffffff16908163ffffffff168152505081600160008663ffffffff1663ffffffff1681526020019081526020016000206000600a811015156107ba57fe5b60080201600082015181600001600082015181600001556020820151816001015560408201518160020160006101000a81548173ffffffffffffffffffffffffffffffffffffffff021916908373ffffffffffffffffffffffffffffffffffffffff1602179055505050602082015181600301600082015181600001556020820151816001015560408201518160020160006101000a81548173ffffffffffffffffffffffffffffffffffffffff021916908373ffffffffffffffffffffffffffffffffffffffff16021790555050506040820151816006015560608201518160070160006101000a81548163ffffffff021916908363ffffffff1602179055509050505050505050505050565b600160008263ffffffff1663ffffffff16815260200190815260200160002060016000808463ffffffff1663ffffffff16815260200190815260200160002060020160049054906101000a900463ffffffff160363ffffffff16600a8110151561092e57fe5b6008020160030160020160009054906101000a900473ffffffffffffffffffffffffffffffffffffffff1673ffffffffffffffffffffffffffffffffffffffff163373ffffffffffffffffffffffffffffffffffffffff1614151561099257600080fd5b60016000808363ffffffff1663ffffffff16815260200190815260200160002060020160086101000a81548160ff02191690831515021790555050565b60008060008663ffffffff1663ffffffff16815260200190815260200160002060020160049054906101000a900463ffffffff169050600160008663ffffffff1663ffffffff1681526020019081526020016000206001820363ffffffff16600a81101515610a3a57fe5b6008020160070160009054906101000a900463ffffffff1663ffffffff168463ffffffff16141515610a6b57600080fd5b82600160008763ffffffff1663ffffffff1681526020019081526020016000206001830363ffffffff16600a81101515610aa157fe5b600802016003016000018190555033600160008763ffffffff1663ffffffff1681526020019081526020016000206001830363ffffffff16600a81101515610ae557fe5b6008020160030160020160006101000a81548173ffffffffffffffffffffffffffffffffffffffff021916908373ffffffffffffffffffffffffffffffffffffffff16021790555081600160008763ffffffff1663ffffffff1681526020019081526020016000206001830363ffffffff16600a81101515610b6357fe5b60080201600301600101819055505050505050565b60008060008463ffffffff1663ffffffff16815260200190815260200160002060020160049054906101000a900463ffffffff169050600160008463ffffffff1663ffffffff1681526020019081526020016000206001820363ffffffff16600a81101515610be357fe5b6008020160030160020160009054906101000a900473ffffffffffffffffffffffffffffffffffffffff1673ffffffffffffffffffffffffffffffffffffffff163373ffffffffffffffffffffffffffffffffffffffff16141515610c4757600080fd5b610c4f610f3a565b600160008563ffffffff1663ffffffff1681526020019081526020016000206001830363ffffffff16600a81101515610c8457fe5b600802016003016060604051908101604052908160008201548152602001600182015481526020016002820160009054906101000a900473ffffffffffffffffffffffffffffffffffffffff1673ffffffffffffffffffffffffffffffffffffffff1673ffffffffffffffffffffffffffffffffffffffff1681525050816000018190525082816060019063ffffffff16908163ffffffff168152505080600160008663ffffffff1663ffffffff1681526020019081526020016000208363ffffffff16600a81101515610d5457fe5b60080201600082015181600001600082015181600001556020820151816001015560408201518160020160006101000a81548173ffffffffffffffffffffffffffffffffffffffff021916908373ffffffffffffffffffffffffffffffffffffffff1602179055505050602082015181600301600082015181600001556020820151816001015560408201518160020160006101000a81548173ffffffffffffffffffffffffffffffffffffffff021916908373ffffffffffffffffffffffffffffffffffffffff16021790555050506040820151816006015560608201518160070160006101000a81548163ffffffff021916908363ffffffff16021790555090505060016000808663ffffffff1663ffffffff16815260200190815260200160002060020160048282829054906101000a900463ffffffff160192506101000a81548163ffffffff021916908363ffffffff16021790555050505050565b61014060405190810160405280600a90602082028038833980820191505090505090565b61014060405190810160405280600a90602082028038833980820191505090505090565b6060604051908101604052806000801916815260200160008019168152602001600073ffffffffffffffffffffffffffffffffffffffff1681525090565b61010060405190810160405280610f4f610f76565b8152602001610f5c610f76565b815260200160008152602001600063ffffffff1681525090565b6060604051908101604052806000801916815260200160008019168152602001600073ffffffffffffffffffffffffffffffffffffffff168152509056fea165627a7a723058205f70dc77fcbaa100dcf9b7d3a9c86195be1ff545e345db44be876e7e5293d51e0029",
  "source": "pragma solidity ^0.5.0;\n\ncontract ProductChain {\n\n    struct Company {\n        bytes32 name;\n        bytes32 origin;\n        address p_key;\n    }\n\n    struct Transaction {\n        Company seller;\n        Company buyer;\n        uint datastamp;\n        uint32 id;\n    }\n\n    struct Product {\n        bytes32 name;\n        bytes32 description;\n        uint32 id;\n        uint32 transactions_count;\n        bool isSold;\n    }\n\n    mapping (uint32 => Product) products;\n    mapping (uint32 => Transaction[10]) transactions;\n\n    constructor() public {\n\n    }\n\n    function addProduct(bytes32 c_name, bytes32 c_origin, bytes32 pr_name, bytes32 pr_descr, uint32 pr_id) public {\n\n        Company memory cmp;\n        Transaction memory tr;\n        Product storage pr = products[pr_id];\n\n        cmp.name = c_name;\n        cmp.origin = c_origin;\n        cmp.p_key = msg.sender;\n\n        pr.name = pr_name;\n        pr.description = pr_descr;\n        pr.id = pr_id;\n        pr.transactions_count = 1;\n\n        tr.buyer = cmp;\n        tr.datastamp = now;\n        tr.id = 0;\n\n        transactions[pr_id][0] = tr;\n    }\n\n    function sellProduct(uint32 pr_id, uint32 tr_id) public {\n\n        uint32 tr_count = products[pr_id].transactions_count;\n        require(msg.sender == transactions[pr_id][tr_count - 1].buyer.p_key);\n\n        Transaction memory tr;\n        tr.seller = transactions[pr_id][tr_count - 1].buyer;\n        tr.id = tr_id;\n\n        transactions[pr_id][tr_count] = tr;\n        products[pr_id].transactions_count += 1;\n    }\n\n    function buyProduct(uint32 pr_id, uint32 tr_id, bytes32 s_name, bytes32 s_origin) public {\n\n        uint32 tr_count = products[pr_id].transactions_count;\n        require(tr_id == transactions[pr_id][tr_count - 1].id);\n\n        transactions[pr_id][tr_count - 1].buyer.name = s_name;\n        transactions[pr_id][tr_count - 1].buyer.p_key = msg.sender;\n        transactions[pr_id][tr_count - 1].buyer.origin = s_origin;\n    }\n\n    function getInformation(uint32 pr_id) public view\n        returns(bytes32 pr_name, bytes32 pr_descr, bytes32 producer, bytes32 origin, address p_key, bytes32[10] memory sell_names, bytes32[10] memory buy_names, address[10] memory sell_addr, address[10] memory buy_addr, bool isSold) {\n\n        Product storage pr = products[pr_id];\n\n        pr_name = pr.name;\n        pr_descr = pr.description;\n        producer = transactions[pr_id][0].buyer.name;\n        origin = transactions[pr_id][0].buyer.origin;\n        p_key = transactions[pr_id][0].buyer.p_key;\n        for (uint i = 0; i < pr.transactions_count; i++) {\n            sell_names[i] = transactions[pr_id][i].seller.name;\n            sell_addr[i] = transactions[pr_id][i].seller.p_key;\n            buy_names[i] = transactions[pr_id][i].buyer.name;\n            buy_addr[i] = transactions[pr_id][i].buyer.p_key;\n        }\n        isSold = pr.isSold;\n    }\n\n    function makeSale(uint32 pr_id) public {\n\n        require(msg.sender == transactions[pr_id][products[pr_id].transactions_count - 1].buyer.p_key);\n\n        products[pr_id].isSold = true;\n    }\n}\n",
  "sourcePath": "/home/sami/ProductChain/Contract/contracts/ProductChain.sol",
  "compiler": {
    "name": "solc",
    "version": "0.5.0+commit.1d4f565a.Emscripten.clang"
  },
  "schemaVersion": "3.0.3",
  "updatedAt": "2019-03-16T12:30:50.691Z",
  "devdoc": {
    "methods": {}
  },
  "userdoc": {
    "methods": {}
  }
}