{
  "contractName": "ProductChain",
  "abi": [
    {
      "inputs": [],
      "payable": false,
      "stateMutability": "nonpayable",
      "type": "constructor",
      "signature": "constructor"
    },
    {
      "constant": false,
      "inputs": [
        {
          "name": "c_name",
          "type": "bytes32"
        },
        {
          "name": "c_origin",
          "type": "bytes32"
        },
        {
          "name": "pr_name",
          "type": "bytes32"
        },
        {
          "name": "pr_descr",
          "type": "bytes32"
        },
        {
          "name": "pr_id",
          "type": "uint32"
        }
      ],
      "name": "addProduct",
      "outputs": [],
      "payable": false,
      "stateMutability": "nonpayable",
      "type": "function",
      "signature": "0x48352bef"
    },
    {
      "constant": false,
      "inputs": [
        {
          "name": "pr_id",
          "type": "uint32"
        },
        {
          "name": "tr_id",
          "type": "uint32"
        }
      ],
      "name": "sellProduct",
      "outputs": [],
      "payable": false,
      "stateMutability": "nonpayable",
      "type": "function",
      "signature": "0xa8c0551f"
    },
    {
      "constant": false,
      "inputs": [
        {
          "name": "pr_id",
          "type": "uint32"
        },
        {
          "name": "tr_id",
          "type": "uint32"
        },
        {
          "name": "s_name",
          "type": "bytes32"
        },
        {
          "name": "s_origin",
          "type": "bytes32"
        }
      ],
      "name": "buyProduct",
      "outputs": [],
      "payable": false,
      "stateMutability": "nonpayable",
      "type": "function",
      "signature": "0xa32b6eac"
    },
    {
      "constant": true,
      "inputs": [
        {
          "name": "pr_id",
          "type": "uint32"
        }
      ],
      "name": "getInformation",
      "outputs": [
        {
          "name": "pr_name",
          "type": "bytes32"
        },
        {
          "name": "pr_descr",
          "type": "bytes32"
        },
        {
          "name": "producer",
          "type": "bytes32"
        },
        {
          "name": "origin",
          "type": "bytes32"
        },
        {
          "name": "p_key",
          "type": "address"
        },
        {
          "name": "sell_names",
          "type": "bytes32[10]"
        },
        {
          "name": "buy_names",
          "type": "bytes32[10]"
        },
        {
          "name": "sell_addr",
          "type": "address[10]"
        },
        {
          "name": "buy_addr",
          "type": "address[10]"
        }
      ],
      "payable": false,
      "stateMutability": "view",
      "type": "function",
      "signature": "0x1804aff9"
    }
  ],
  "bytecode": "0x608060405234801561001057600080fd5b50610e6d806100206000396000f3fe608060405260043610610062576000357c0100000000000000000000000000000000000000000000000000000000900463ffffffff1680631804aff91461006757806348352bef146101c0578063a32b6eac14610229578063a8c0551f1461028e575b600080fd5b34801561007357600080fd5b506100a66004803603602081101561008a57600080fd5b81019080803563ffffffff1690602001909291905050506102df565b604051808a81526020018981526020018881526020018781526020018673ffffffffffffffffffffffffffffffffffffffff1673ffffffffffffffffffffffffffffffffffffffff16815260200185600a60200280838360005b8381101561011b578082015181840152602081019050610100565b5050505090500184600a60200280838360005b8381101561014957808201518184015260208101905061012e565b5050505090500183600a60200280838360005b8381101561017757808201518184015260208101905061015c565b5050505090500182600a60200280838360005b838110156101a557808201518184015260208101905061018a565b50505050905001995050505050505050505060405180910390f35b3480156101cc57600080fd5b50610227600480360360a08110156101e357600080fd5b8101908080359060200190929190803590602001909291908035906020019092919080359060200190929190803563ffffffff16906020019092919050505061061d565b005b34801561023557600080fd5b5061028c6004803603608081101561024c57600080fd5b81019080803563ffffffff169060200190929190803563ffffffff169060200190929190803590602001909291908035906020019092919050505061085c565b005b34801561029a57600080fd5b506102dd600480360360408110156102b157600080fd5b81019080803563ffffffff169060200190929190803563ffffffff169060200190929190505050610a05565b005b60008060008060006102ef610d41565b6102f7610d41565b6102ff610d65565b610307610d65565b60008060008c63ffffffff1663ffffffff16815260200190815260200160002090508060000154995080600101549850600160008c63ffffffff1663ffffffff1681526020019081526020016000206000600a8110151561036457fe5b60080201600301600001549750600160008c63ffffffff1663ffffffff1681526020019081526020016000206000600a8110151561039e57fe5b60080201600301600101549650600160008c63ffffffff1663ffffffff1681526020019081526020016000206000600a811015156103d857fe5b6008020160030160020160009054906101000a900473ffffffffffffffffffffffffffffffffffffffff16955060008090505b8160020160049054906101000a900463ffffffff1663ffffffff1681101561060e57600160008d63ffffffff1663ffffffff16815260200190815260200160002081600a8110151561045957fe5b60080201600001600001548682600a8110151561047257fe5b602002018181525050600160008d63ffffffff1663ffffffff16815260200190815260200160002081600a811015156104a757fe5b6008020160000160020160009054906101000a900473ffffffffffffffffffffffffffffffffffffffff168482600a811015156104e057fe5b602002019073ffffffffffffffffffffffffffffffffffffffff16908173ffffffffffffffffffffffffffffffffffffffff1681525050600160008d63ffffffff1663ffffffff16815260200190815260200160002081600a8110151561054357fe5b60080201600301600001548582600a8110151561055c57fe5b602002018181525050600160008d63ffffffff1663ffffffff16815260200190815260200160002081600a8110151561059157fe5b6008020160030160020160009054906101000a900473ffffffffffffffffffffffffffffffffffffffff168382600a811015156105ca57fe5b602002019073ffffffffffffffffffffffffffffffffffffffff16908173ffffffffffffffffffffffffffffffffffffffff1681525050808060010191505061040b565b50509193959799909294969850565b610625610d89565b61062d610dc7565b60008060008563ffffffff1663ffffffff1681526020019081526020016000209050878360000181815250508683602001818152505033836040019073ffffffffffffffffffffffffffffffffffffffff16908173ffffffffffffffffffffffffffffffffffffffff1681525050858160000181905550848160010181905550838160020160006101000a81548163ffffffff021916908363ffffffff16021790555060018160020160046101000a81548163ffffffff021916908363ffffffff160217905550828260200181905250428260400181815250506000826060019063ffffffff16908163ffffffff168152505081600160008663ffffffff1663ffffffff1681526020019081526020016000206000600a8110151561074e57fe5b60080201600082015181600001600082015181600001556020820151816001015560408201518160020160006101000a81548173ffffffffffffffffffffffffffffffffffffffff021916908373ffffffffffffffffffffffffffffffffffffffff1602179055505050602082015181600301600082015181600001556020820151816001015560408201518160020160006101000a81548173ffffffffffffffffffffffffffffffffffffffff021916908373ffffffffffffffffffffffffffffffffffffffff16021790555050506040820151816006015560608201518160070160006101000a81548163ffffffff021916908363ffffffff1602179055509050505050505050505050565b60008060008663ffffffff1663ffffffff16815260200190815260200160002060020160049054906101000a900463ffffffff169050600160008663ffffffff1663ffffffff1681526020019081526020016000206001820363ffffffff16600a811015156108c757fe5b6008020160070160009054906101000a900463ffffffff1663ffffffff168463ffffffff161415156108f857600080fd5b82600160008763ffffffff1663ffffffff1681526020019081526020016000206001830363ffffffff16600a8110151561092e57fe5b600802016003016000018190555033600160008763ffffffff1663ffffffff1681526020019081526020016000206001830363ffffffff16600a8110151561097257fe5b6008020160030160020160006101000a81548173ffffffffffffffffffffffffffffffffffffffff021916908373ffffffffffffffffffffffffffffffffffffffff16021790555081600160008763ffffffff1663ffffffff1681526020019081526020016000206001830363ffffffff16600a811015156109f057fe5b60080201600301600101819055505050505050565b60008060008463ffffffff1663ffffffff16815260200190815260200160002060020160049054906101000a900463ffffffff169050600160008463ffffffff1663ffffffff1681526020019081526020016000206001820363ffffffff16600a81101515610a7057fe5b6008020160030160020160009054906101000a900473ffffffffffffffffffffffffffffffffffffffff1673ffffffffffffffffffffffffffffffffffffffff163373ffffffffffffffffffffffffffffffffffffffff16141515610ad457600080fd5b610adc610dc7565b600160008563ffffffff1663ffffffff1681526020019081526020016000206001830363ffffffff16600a81101515610b1157fe5b600802016003016060604051908101604052908160008201548152602001600182015481526020016002820160009054906101000a900473ffffffffffffffffffffffffffffffffffffffff1673ffffffffffffffffffffffffffffffffffffffff1673ffffffffffffffffffffffffffffffffffffffff1681525050816000018190525082816060019063ffffffff16908163ffffffff168152505080600160008663ffffffff1663ffffffff1681526020019081526020016000208363ffffffff16600a81101515610be157fe5b60080201600082015181600001600082015181600001556020820151816001015560408201518160020160006101000a81548173ffffffffffffffffffffffffffffffffffffffff021916908373ffffffffffffffffffffffffffffffffffffffff1602179055505050602082015181600301600082015181600001556020820151816001015560408201518160020160006101000a81548173ffffffffffffffffffffffffffffffffffffffff021916908373ffffffffffffffffffffffffffffffffffffffff16021790555050506040820151816006015560608201518160070160006101000a81548163ffffffff021916908363ffffffff16021790555090505060016000808663ffffffff1663ffffffff16815260200190815260200160002060020160048282829054906101000a900463ffffffff160192506101000a81548163ffffffff021916908363ffffffff16021790555050505050565b61014060405190810160405280600a90602082028038833980820191505090505090565b61014060405190810160405280600a90602082028038833980820191505090505090565b6060604051908101604052806000801916815260200160008019168152602001600073ffffffffffffffffffffffffffffffffffffffff1681525090565b61010060405190810160405280610ddc610e03565b8152602001610de9610e03565b815260200160008152602001600063ffffffff1681525090565b6060604051908101604052806000801916815260200160008019168152602001600073ffffffffffffffffffffffffffffffffffffffff168152509056fea165627a7a72305820abd429b54fe1a1f081e17d36d6172d02084049c18686f6d9e29df9a4e73e4d0f0029",
  "source": "pragma solidity ^0.5.0;\n\ncontract ProductChain {\n\n    struct Company {\n        bytes32 name;\n        bytes32 origin;\n        address p_key;\n    }\n\n    struct Transaction {\n        Company seller;\n        Company buyer;\n        uint datastamp;\n        uint32 id;\n    }\n\n    struct Product {\n        bytes32 name;\n        bytes32 description;\n        uint32 id;\n        uint32 transactions_count;\n    }\n\n    mapping (uint32 => Product) products;\n    mapping (uint32 => Transaction[10]) transactions;\n\n    constructor() public {\n\n    }\n\n    function addProduct(bytes32 c_name, bytes32 c_origin, bytes32 pr_name, bytes32 pr_descr, uint32 pr_id) public {\n\n        Company memory cmp;\n        Transaction memory tr;\n        Product storage pr = products[pr_id];\n\n        cmp.name = c_name;\n        cmp.origin = c_origin;\n        cmp.p_key = msg.sender;\n\n        pr.name = pr_name;\n        pr.description = pr_descr;\n        pr.id = pr_id;\n        pr.transactions_count = 1;\n\n        tr.buyer = cmp;\n        tr.datastamp = now;\n        tr.id = 0;\n\n        transactions[pr_id][0] = tr;\n    }\n\n    function sellProduct(uint32 pr_id, uint32 tr_id) public {\n\n        uint32 tr_count = products[pr_id].transactions_count;\n        require(msg.sender == transactions[pr_id][tr_count - 1].buyer.p_key);\n\n        Transaction memory tr;\n        tr.seller = transactions[pr_id][tr_count - 1].buyer;\n        tr.id = tr_id;\n\n        transactions[pr_id][tr_count] = tr;\n        products[pr_id].transactions_count += 1;\n    }\n\n    function buyProduct(uint32 pr_id, uint32 tr_id, bytes32 s_name, bytes32 s_origin) public {\n\n        uint32 tr_count = products[pr_id].transactions_count;\n        require(tr_id == transactions[pr_id][tr_count - 1].id);\n\n        transactions[pr_id][tr_count - 1].buyer.name = s_name;\n        transactions[pr_id][tr_count - 1].buyer.p_key = msg.sender;\n        transactions[pr_id][tr_count - 1].buyer.origin = s_origin;\n    }\n\n    function getInformation(uint32 pr_id) public view\n        returns(bytes32 pr_name, bytes32 pr_descr, bytes32 producer, bytes32 origin, address p_key, bytes32[10] memory sell_names, bytes32[10] memory buy_names, address[10] memory sell_addr, address[10] memory buy_addr) {\n\n        Product storage pr = products[pr_id];\n\n        pr_name = pr.name;\n        pr_descr = pr.description;\n        producer = transactions[pr_id][0].buyer.name;\n        origin = transactions[pr_id][0].buyer.origin;\n        p_key = transactions[pr_id][0].buyer.p_key;\n        for (uint i = 0; i < pr.transactions_count; i++) {\n            sell_names[i] = transactions[pr_id][i].seller.name;\n            sell_addr[i] = transactions[pr_id][i].seller.p_key;\n            buy_names[i] = transactions[pr_id][i].buyer.name;\n            buy_addr[i] = transactions[pr_id][i].buyer.p_key;\n        }\n    }\n}\n",
  "sourcePath": "/home/sami/ProductChain/Contract/contracts/ProductChain.sol",
  "compiler": {
    "name": "solc",
    "version": "0.5.0+commit.1d4f565a.Emscripten.clang"
  },
  "schemaVersion": "3.0.3",
  "updatedAt": "2019-03-16T07:32:44.705Z",
  "devdoc": {
    "methods": {}
  },
  "userdoc": {
    "methods": {}
  }
}